{
  "contractName": "ControlCenter",
  "abi": [
    {
      "anonymous": false,
      "inputs": [
        {
          "indexed": false,
          "internalType": "bool",
          "name": "accidentConfirmed",
          "type": "bool"
        },
        {
          "indexed": false,
          "internalType": "string",
          "name": "location",
          "type": "string"
        }
      ],
      "name": "AccidentVerified",
      "type": "event"
    },
    {
      "anonymous": false,
      "inputs": [
        {
          "indexed": false,
          "internalType": "string",
          "name": "numberPlate",
          "type": "string"
        },
        {
          "indexed": false,
          "internalType": "string",
          "name": "currentLocation",
          "type": "string"
        },
        {
          "indexed": false,
          "internalType": "bool",
          "name": "isBusy",
          "type": "bool"
        }
      ],
      "name": "AmbulanceAdded",
      "type": "event"
    },
    {
      "anonymous": false,
      "inputs": [
        {
          "indexed": false,
          "internalType": "address[]",
          "name": "nearestAmbulances",
          "type": "address[]"
        }
      ],
      "name": "NearestAmbulancesFound",
      "type": "event"
    },
    {
      "inputs": [
        {
          "internalType": "uint256",
          "name": "",
          "type": "uint256"
        }
      ],
      "name": "ambulanceDatabase",
      "outputs": [
        {
          "internalType": "string",
          "name": "numberPlate",
          "type": "string"
        },
        {
          "internalType": "string",
          "name": "currentLocation",
          "type": "string"
        },
        {
          "internalType": "bool",
          "name": "isBusy",
          "type": "bool"
        }
      ],
      "stateMutability": "view",
      "type": "function"
    },
    {
      "inputs": [
        {
          "internalType": "string",
          "name": "_numberPlate",
          "type": "string"
        },
        {
          "internalType": "string",
          "name": "_currentLocation",
          "type": "string"
        },
        {
          "internalType": "bool",
          "name": "_isBusy",
          "type": "bool"
        }
      ],
      "name": "addAmbulance",
      "outputs": [],
      "stateMutability": "nonpayable",
      "type": "function"
    },
    {
      "inputs": [],
      "name": "displayAmbulanceDatabase",
      "outputs": [
        {
          "components": [
            {
              "internalType": "string",
              "name": "numberPlate",
              "type": "string"
            },
            {
              "internalType": "string",
              "name": "currentLocation",
              "type": "string"
            },
            {
              "internalType": "bool",
              "name": "isBusy",
              "type": "bool"
            }
          ],
          "internalType": "struct ControlCenter.Ambulance[]",
          "name": "",
          "type": "tuple[]"
        }
      ],
      "stateMutability": "view",
      "type": "function"
    },
    {
      "inputs": [
        {
          "internalType": "string",
          "name": "_numberPlate",
          "type": "string"
        }
      ],
      "name": "searchAmbulanceByNumberPlate",
      "outputs": [
        {
          "components": [
            {
              "internalType": "string",
              "name": "numberPlate",
              "type": "string"
            },
            {
              "internalType": "string",
              "name": "currentLocation",
              "type": "string"
            },
            {
              "internalType": "bool",
              "name": "isBusy",
              "type": "bool"
            }
          ],
          "internalType": "struct ControlCenter.Ambulance",
          "name": "",
          "type": "tuple"
        }
      ],
      "stateMutability": "view",
      "type": "function"
    },
    {
      "inputs": [
        {
          "internalType": "string",
          "name": "_location",
          "type": "string"
        }
      ],
      "name": "searchAmbulanceByLocation",
      "outputs": [
        {
          "components": [
            {
              "internalType": "string",
              "name": "numberPlate",
              "type": "string"
            },
            {
              "internalType": "string",
              "name": "currentLocation",
              "type": "string"
            },
            {
              "internalType": "bool",
              "name": "isBusy",
              "type": "bool"
            }
          ],
          "internalType": "struct ControlCenter.Ambulance",
          "name": "",
          "type": "tuple"
        }
      ],
      "stateMutability": "view",
      "type": "function"
    },
    {
      "inputs": [
        {
          "internalType": "string",
          "name": "_location",
          "type": "string"
        }
      ],
      "name": "getLocationAddress",
      "outputs": [
        {
          "internalType": "address",
          "name": "",
          "type": "address"
        }
      ],
      "stateMutability": "pure",
      "type": "function"
    },
    {
      "inputs": [
        {
          "internalType": "bool",
          "name": "_largeCrowd",
          "type": "bool"
        },
        {
          "internalType": "bool",
          "name": "_trafficJam",
          "type": "bool"
        }
      ],
      "name": "verifyAccidentInformation",
      "outputs": [
        {
          "internalType": "bool",
          "name": "",
          "type": "bool"
        }
      ],
      "stateMutability": "nonpayable",
      "type": "function"
    },
    {
      "inputs": [
        {
          "internalType": "string",
          "name": "_accidentLocation",
          "type": "string"
        }
      ],
      "name": "findNearestAmbulances",
      "outputs": [
        {
          "internalType": "address[]",
          "name": "",
          "type": "address[]"
        }
      ],
      "stateMutability": "view",
      "type": "function"
    }
  ],
  "bytecode": "0x608060405234801561000f575f80fd5b506119168061001d5f395ff3fe608060405234801561000f575f80fd5b5060043610610085575f3560e01c80635a72a2a0116100595780635a72a2a014610149578063965f451914610167578063a6fa094914610197578063ea0feed6146101b357610085565b8062441f2e146100895780631ea5d195146100b95780632d241770146100e9578063431d541214610119575b5f80fd5b6100a3600480360381019061009e9190610e18565b6101e5565b6040516100b09190610f46565b60405180910390f35b6100d360048036038101906100ce9190610f9b565b610479565b6040516100e09190610fe8565b60405180910390f35b61010360048036038101906100fe9190610e18565b61050b565b60405161011091906110de565b60405180910390f35b610133600480360381019061012e9190610e18565b61067c565b60405161014091906110de565b60405180910390f35b6101516107ec565b60405161015e919061120d565b60405180910390f35b610181600480360381019061017c9190610e18565b610981565b60405161018e919061123c565b60405180910390f35b6101b160048036038101906101ac9190611255565b6109b2565b005b6101cd60048036038101906101c89190611310565b610b5c565b6040516101dc93929190611383565b60405180910390f35b60605f600567ffffffffffffffff81111561020357610202610cf4565b5b6040519080825280602002602001820160405280156102315781602001602082028036833780820191505090505b5090505f60028054905067ffffffffffffffff81111561025457610253610cf4565b5b6040519080825280602002602001820160405280156102825781602001602082028036833780820191505090505b5090505f61028f85610981565b90505f5b6002805490508110156102df576064816102ad91906113f3565b8382815181106102c0576102bf611434565b5b60200260200101818152505080806102d790611461565b915050610293565b505f5b600581101561046d575f7fffffffffffffffffffffffffffffffffffffffffffffffffffffffffffffffff90505f805b6002805490508110156103fd578286828151811061033357610332611434565b5b602002602001015110156103ea575f805b858110156103c15760018361035991906114a8565b73ffffffffffffffffffffffffffffffffffffffff1689828151811061038257610381611434565b5b602002602001015173ffffffffffffffffffffffffffffffffffffffff16036103ae57600191506103c1565b80806103b990611461565b915050610344565b50806103e8578682815181106103da576103d9611434565b5b602002602001015193508192505b505b80806103f590611461565b915050610312565b5060018161040b91906114a8565b86848151811061041e5761041d611434565b5b602002602001019073ffffffffffffffffffffffffffffffffffffffff16908173ffffffffffffffffffffffffffffffffffffffff16815250505050808061046590611461565b9150506102e2565b50829350505050919050565b5f8280156104845750815b156104ca577f7745dc7e6a06bb181f05277fa38cfee439031245bc46399efe6b295e1da87ce360016040516104b99190611525565b60405180910390a160019050610505565b7f7745dc7e6a06bb181f05277fa38cfee439031245bc46399efe6b295e1da87ce35f6040516104f9919061159b565b60405180910390a15f90505b92915050565b610513610ca9565b6001826040516105239190611601565b90815260200160405180910390206040518060600160405290815f8201805461054b90611644565b80601f016020809104026020016040519081016040528092919081815260200182805461057790611644565b80156105c25780601f10610599576101008083540402835291602001916105c2565b820191905f5260205f20905b8154815290600101906020018083116105a557829003601f168201915b505050505081526020016001820180546105db90611644565b80601f016020809104026020016040519081016040528092919081815260200182805461060790611644565b80156106525780601f1061062957610100808354040283529160200191610652565b820191905f5260205f20905b81548152906001019060200180831161063557829003601f168201915b50505050508152602001600282015f9054906101000a900460ff1615151515815250509050919050565b610684610ca9565b5f826040516106939190611601565b90815260200160405180910390206040518060600160405290815f820180546106bb90611644565b80601f01602080910402602001604051908101604052809291908181526020018280546106e790611644565b80156107325780601f1061070957610100808354040283529160200191610732565b820191905f5260205f20905b81548152906001019060200180831161071557829003601f168201915b5050505050815260200160018201805461074b90611644565b80601f016020809104026020016040519081016040528092919081815260200182805461077790611644565b80156107c25780601f10610799576101008083540402835291602001916107c2565b820191905f5260205f20905b8154815290600101906020018083116107a557829003601f168201915b50505050508152602001600282015f9054906101000a900460ff1615151515815250509050919050565b60606002805480602002602001604051908101604052809291908181526020015f905b82821015610978578382905f5260205f2090600302016040518060600160405290815f8201805461083f90611644565b80601f016020809104026020016040519081016040528092919081815260200182805461086b90611644565b80156108b65780601f1061088d576101008083540402835291602001916108b6565b820191905f5260205f20905b81548152906001019060200180831161089957829003601f168201915b505050505081526020016001820180546108cf90611644565b80601f01602080910402602001604051908101604052809291908181526020018280546108fb90611644565b80156109465780601f1061091d57610100808354040283529160200191610946565b820191905f5260205f20905b81548152906001019060200180831161092957829003601f168201915b50505050508152602001600282015f9054906101000a900460ff1615151515815250508152602001906001019061080f565b50505050905090565b5f816040516020016109939190611601565b604051602081830303815290604052805190602001205f1c9050919050565b5f60405180606001604052808581526020018481526020018315158152509050805f856040516109e29190611601565b90815260200160405180910390205f820151815f019081610a039190611811565b506020820151816001019081610a199190611811565b506040820151816002015f6101000a81548160ff02191690831515021790555090505080600184604051610a4d9190611601565b90815260200160405180910390205f820151815f019081610a6e9190611811565b506020820151816001019081610a849190611811565b506040820151816002015f6101000a81548160ff021916908315150217905550905050600281908060018154018082558091505060019003905f5260205f2090600302015f909190919091505f820151815f019081610ae39190611811565b506020820151816001019081610af99190611811565b506040820151816002015f6101000a81548160ff02191690831515021790555050507fa073927ce3ce02458f657266703806752a598fecf0a78d83c478f8a38d6a20ad848484604051610b4e93929190611383565b60405180910390a150505050565b60028181548110610b6b575f80fd5b905f5260205f2090600302015f91509050805f018054610b8a90611644565b80601f0160208091040260200160405190810160405280929190818152602001828054610bb690611644565b8015610c015780601f10610bd857610100808354040283529160200191610c01565b820191905f5260205f20905b815481529060010190602001808311610be457829003601f168201915b505050505090806001018054610c1690611644565b80601f0160208091040260200160405190810160405280929190818152602001828054610c4290611644565b8015610c8d5780601f10610c6457610100808354040283529160200191610c8d565b820191905f5260205f20905b815481529060010190602001808311610c7057829003601f168201915b505050505090806002015f9054906101000a900460ff16905083565b604051806060016040528060608152602001606081526020015f151581525090565b5f604051905090565b5f80fd5b5f80fd5b5f80fd5b5f80fd5b5f601f19601f8301169050919050565b7f4e487b71000000000000000000000000000000000000000000000000000000005f52604160045260245ffd5b610d2a82610ce4565b810181811067ffffffffffffffff82111715610d4957610d48610cf4565b5b80604052505050565b5f610d5b610ccb565b9050610d678282610d21565b919050565b5f67ffffffffffffffff821115610d8657610d85610cf4565b5b610d8f82610ce4565b9050602081019050919050565b828183375f83830152505050565b5f610dbc610db784610d6c565b610d52565b905082815260208101848484011115610dd857610dd7610ce0565b5b610de3848285610d9c565b509392505050565b5f82601f830112610dff57610dfe610cdc565b5b8135610e0f848260208601610daa565b91505092915050565b5f60208284031215610e2d57610e2c610cd4565b5b5f82013567ffffffffffffffff811115610e4a57610e49610cd8565b5b610e5684828501610deb565b91505092915050565b5f81519050919050565b5f82825260208201905092915050565b5f819050602082019050919050565b5f73ffffffffffffffffffffffffffffffffffffffff82169050919050565b5f610eb182610e88565b9050919050565b610ec181610ea7565b82525050565b5f610ed28383610eb8565b60208301905092915050565b5f602082019050919050565b5f610ef482610e5f565b610efe8185610e69565b9350610f0983610e79565b805f5b83811015610f39578151610f208882610ec7565b9750610f2b83610ede565b925050600181019050610f0c565b5085935050505092915050565b5f6020820190508181035f830152610f5e8184610eea565b905092915050565b5f8115159050919050565b610f7a81610f66565b8114610f84575f80fd5b50565b5f81359050610f9581610f71565b92915050565b5f8060408385031215610fb157610fb0610cd4565b5b5f610fbe85828601610f87565b9250506020610fcf85828601610f87565b9150509250929050565b610fe281610f66565b82525050565b5f602082019050610ffb5f830184610fd9565b92915050565b5f81519050919050565b5f82825260208201905092915050565b5f5b8381101561103857808201518184015260208101905061101d565b5f8484015250505050565b5f61104d82611001565b611057818561100b565b935061106781856020860161101b565b61107081610ce4565b840191505092915050565b61108481610f66565b82525050565b5f606083015f8301518482035f8601526110a48282611043565b915050602083015184820360208601526110be8282611043565b91505060408301516110d3604086018261107b565b508091505092915050565b5f6020820190508181035f8301526110f6818461108a565b905092915050565b5f81519050919050565b5f82825260208201905092915050565b5f819050602082019050919050565b5f606083015f8301518482035f8601526111418282611043565b9150506020830151848203602086015261115b8282611043565b9150506040830151611170604086018261107b565b508091505092915050565b5f6111868383611127565b905092915050565b5f602082019050919050565b5f6111a4826110fe565b6111ae8185611108565b9350836020820285016111c085611118565b805f5b858110156111fb57848403895281516111dc858261117b565b94506111e78361118e565b925060208a019950506001810190506111c3565b50829750879550505050505092915050565b5f6020820190508181035f830152611225818461119a565b905092915050565b61123681610ea7565b82525050565b5f60208201905061124f5f83018461122d565b92915050565b5f805f6060848603121561126c5761126b610cd4565b5b5f84013567ffffffffffffffff81111561128957611288610cd8565b5b61129586828701610deb565b935050602084013567ffffffffffffffff8111156112b6576112b5610cd8565b5b6112c286828701610deb565b92505060406112d386828701610f87565b9150509250925092565b5f819050919050565b6112ef816112dd565b81146112f9575f80fd5b50565b5f8135905061130a816112e6565b92915050565b5f6020828403121561132557611324610cd4565b5b5f611332848285016112fc565b91505092915050565b5f82825260208201905092915050565b5f61135582611001565b61135f818561133b565b935061136f81856020860161101b565b61137881610ce4565b840191505092915050565b5f6060820190508181035f83015261139b818661134b565b905081810360208301526113af818561134b565b90506113be6040830184610fd9565b949350505050565b7f4e487b71000000000000000000000000000000000000000000000000000000005f52601160045260245ffd5b5f6113fd826112dd565b9150611408836112dd565b9250828202611416816112dd565b9150828204841483151761142d5761142c6113c6565b5b5092915050565b7f4e487b71000000000000000000000000000000000000000000000000000000005f52603260045260245ffd5b5f61146b826112dd565b91507fffffffffffffffffffffffffffffffffffffffffffffffffffffffffffffffff820361149d5761149c6113c6565b5b600182019050919050565b5f6114b2826112dd565b91506114bd836112dd565b92508282019050808211156114d5576114d46113c6565b5b92915050565b7f4163636964656e7420636f6e6669726d656400000000000000000000000000005f82015250565b5f61150f60128361133b565b915061151a826114db565b602082019050919050565b5f6040820190506115385f830184610fd9565b818103602083015261154981611503565b905092915050565b7f4e6f206163636964656e7420636f6e6669726d656400000000000000000000005f82015250565b5f61158560158361133b565b915061159082611551565b602082019050919050565b5f6040820190506115ae5f830184610fd9565b81810360208301526115bf81611579565b905092915050565b5f81905092915050565b5f6115db82611001565b6115e581856115c7565b93506115f581856020860161101b565b80840191505092915050565b5f61160c82846115d1565b915081905092915050565b7f4e487b71000000000000000000000000000000000000000000000000000000005f52602260045260245ffd5b5f600282049050600182168061165b57607f821691505b60208210810361166e5761166d611617565b5b50919050565b5f819050815f5260205f209050919050565b5f6020601f8301049050919050565b5f82821b905092915050565b5f600883026116d07fffffffffffffffffffffffffffffffffffffffffffffffffffffffffffffffff82611695565b6116da8683611695565b95508019841693508086168417925050509392505050565b5f819050919050565b5f61171561171061170b846112dd565b6116f2565b6112dd565b9050919050565b5f819050919050565b61172e836116fb565b61174261173a8261171c565b8484546116a1565b825550505050565b5f90565b61175661174a565b611761818484611725565b505050565b5b81811015611784576117795f8261174e565b600181019050611767565b5050565b601f8211156117c95761179a81611674565b6117a384611686565b810160208510156117b2578190505b6117c66117be85611686565b830182611766565b50505b505050565b5f82821c905092915050565b5f6117e95f19846008026117ce565b1980831691505092915050565b5f61180183836117da565b9150826002028217905092915050565b61181a82611001565b67ffffffffffffffff81111561183357611832610cf4565b5b61183d8254611644565b611848828285611788565b5f60209050601f831160018114611879575f8415611867578287015190505b61187185826117f6565b8655506118d8565b601f19841661188786611674565b5f5b828110156118ae57848901518255600182019150602085019450602081019050611889565b868310156118cb57848901516118c7601f8916826117da565b8355505b6001600288020188555050505b50505050505056fea26469706673582212209287314e9d4e346b7d5cbe44e12824f6f2bc3806d387ee6cf976b80fde6c543164736f6c63430008150033",
  "immutableReferences": {},
  "source": "// SPDX-License-Identifier: MIT\r\npragma solidity ^0.8.0;\r\n\r\ncontract ControlCenter {\r\n    struct Ambulance {\r\n        string numberPlate;\r\n        string currentLocation;\r\n        bool isBusy;\r\n    }\r\n\r\n    mapping(string => Ambulance) internal ambulanceByNumberPlate;\r\n    mapping(string => Ambulance) internal ambulanceByLocation;\r\n    Ambulance[] public ambulanceDatabase;\r\n\r\n    event AmbulanceAdded(string numberPlate, string currentLocation, bool isBusy);\r\n    event AccidentVerified(bool accidentConfirmed, string location);\r\n    event NearestAmbulancesFound(address[] nearestAmbulances);\r\n\r\n    function addAmbulance(string memory _numberPlate, string memory _currentLocation, bool _isBusy) public {\r\n        Ambulance memory newAmbulance = Ambulance(_numberPlate, _currentLocation, _isBusy);\r\n        ambulanceByNumberPlate[_numberPlate] = newAmbulance;\r\n        ambulanceByLocation[_currentLocation] = newAmbulance;\r\n        ambulanceDatabase.push(newAmbulance);\r\n        \r\n        emit AmbulanceAdded(_numberPlate, _currentLocation, _isBusy);\r\n    }\r\n\r\n    function displayAmbulanceDatabase() public view returns (Ambulance[] memory) {\r\n        return ambulanceDatabase;\r\n    }\r\n\r\n    function searchAmbulanceByNumberPlate(string memory _numberPlate) public view returns (Ambulance memory) {\r\n        return ambulanceByNumberPlate[_numberPlate];\r\n    }\r\n\r\n    function searchAmbulanceByLocation(string memory _location) public view returns (Ambulance memory) {\r\n        return ambulanceByLocation[_location];\r\n    }\r\n\r\n    function getLocationAddress(string memory _location) public pure returns (address) {\r\n        // Simulated logic to convert location to address\r\n        return address(uint160(uint256(keccak256(abi.encodePacked(_location)))));\r\n    }\r\n\r\n    function verifyAccidentInformation(bool _largeCrowd, bool _trafficJam) public returns (bool) {\r\n        // If large number of people gathered and traffic jam situation, then conclude accident has taken place\r\n        if (_largeCrowd && _trafficJam) {\r\n            emit AccidentVerified(true, \"Accident confirmed\");\r\n            return true;\r\n        } else {\r\n            emit AccidentVerified(false, \"No accident confirmed\");\r\n            return false;\r\n        }\r\n    }\r\n\r\n    function findNearestAmbulances(string memory _accidentLocation) public view returns (address[] memory) {\r\n        address[] memory nearestAmbulances = new address[](5); // Assuming we want to find 5 nearest ambulances\r\n\r\n        uint256[] memory distances = new uint256[](ambulanceDatabase.length);\r\n\r\n        address accidentLocationAddress = getLocationAddress(_accidentLocation);\r\n\r\n        // Calculate distances from the accident location to each ambulance\r\n        for (uint256 i = 0; i < ambulanceDatabase.length; i++) {\r\n            // Dummy distance calculation, replace with actual logic based on coordinates\r\n            distances[i] = i * 100; // Replace this line with actual distance calculation logic\r\n        }\r\n\r\n        // Sort distances and find the 5 nearest ambulances\r\n        for (uint256 i = 0; i < 5; i++) {\r\n            uint256 minDistance = type(uint256).max;\r\n            uint256 minIndex = 0;\r\n\r\n            for (uint256 j = 0; j < ambulanceDatabase.length; j++) {\r\n                if (distances[j] < minDistance) {\r\n                    bool alreadySelected = false;\r\n                    // Check if this ambulance is already selected\r\n                    for (uint256 k = 0; k < i; k++) {\r\n                        if (nearestAmbulances[k] == address(uint160(j + 1))) {\r\n                            alreadySelected = true;\r\n                            break;\r\n                        }\r\n                    }\r\n\r\n                    if (!alreadySelected) {\r\n                        minDistance = distances[j];\r\n                        minIndex = j;\r\n                    }\r\n                }\r\n            }\r\n\r\n            nearestAmbulances[i] = address(uint160(minIndex + 1)); // Convert index to address (1-indexed)\r\n        }\r\n\r\n        return nearestAmbulances;\r\n    }\r\n}\r\n",
  "sourcePath": "C:\\Users\\KIIT01\\Desktop\\blockchain\\HealthCare (Research)\\contracts\\1 ControlCenter.sol",
  "compiler": {
    "name": "solc",
    "version": "0.8.21+commit.d9974bed.Emscripten.clang"
  },
  "schemaVersion": "3.4.16",
  "updatedAt": "2024-03-07T16:29:01.539Z",
  "devdoc": {
    "kind": "dev",
    "methods": {},
    "version": 1
  },
  "userdoc": {
    "kind": "user",
    "methods": {},
    "version": 1
  }
}